{
  "contractName": "Voting",
  "abi": [
    {
      "constant": true,
      "inputs": [
        {
          "internalType": "uint256",
          "name": "",
          "type": "uint256"
        }
      ],
      "name": "candidates",
      "outputs": [
        {
          "internalType": "string",
          "name": "name",
          "type": "string"
        },
        {
          "internalType": "string",
          "name": "role",
          "type": "string"
        },
        {
          "internalType": "bool",
          "name": "voted",
          "type": "bool"
        },
        {
          "internalType": "address",
          "name": "id",
          "type": "address"
        }
      ],
      "payable": false,
      "stateMutability": "view",
      "type": "function"
    },
    {
      "constant": true,
      "inputs": [
        {
          "internalType": "uint256",
          "name": "",
          "type": "uint256"
        }
      ],
      "name": "voters",
      "outputs": [
        {
          "internalType": "string",
          "name": "name",
          "type": "string"
        },
        {
          "internalType": "string",
          "name": "role",
          "type": "string"
        },
        {
          "internalType": "bool",
          "name": "voted",
          "type": "bool"
        },
        {
          "internalType": "address",
          "name": "id",
          "type": "address"
        }
      ],
      "payable": false,
      "stateMutability": "view",
      "type": "function"
    },
    {
      "constant": true,
      "inputs": [
        {
          "internalType": "address",
          "name": "",
          "type": "address"
        },
        {
          "internalType": "uint256",
          "name": "",
          "type": "uint256"
        }
      ],
      "name": "votes",
      "outputs": [
        {
          "internalType": "address",
          "name": "",
          "type": "address"
        }
      ],
      "payable": false,
      "stateMutability": "view",
      "type": "function"
    },
    {
      "constant": false,
      "inputs": [
        {
          "internalType": "string",
          "name": "inputName",
          "type": "string"
        }
      ],
      "name": "registerAsVoter",
      "outputs": [],
      "payable": false,
      "stateMutability": "nonpayable",
      "type": "function"
    },
    {
      "constant": false,
      "inputs": [],
      "name": "registerAsCandidate",
      "outputs": [],
      "payable": false,
      "stateMutability": "nonpayable",
      "type": "function"
    },
    {
      "constant": false,
      "inputs": [
        {
          "internalType": "address",
          "name": "inputCandidate",
          "type": "address"
        }
      ],
      "name": "castVote",
      "outputs": [],
      "payable": false,
      "stateMutability": "nonpayable",
      "type": "function"
    },
    {
      "constant": true,
      "inputs": [],
      "name": "getVoters",
      "outputs": [
        {
          "components": [
            {
              "internalType": "string",
              "name": "name",
              "type": "string"
            },
            {
              "internalType": "string",
              "name": "role",
              "type": "string"
            },
            {
              "internalType": "bool",
              "name": "voted",
              "type": "bool"
            },
            {
              "internalType": "address",
              "name": "id",
              "type": "address"
            }
          ],
          "internalType": "struct Voting.Voter[]",
          "name": "",
          "type": "tuple[]"
        }
      ],
      "payable": false,
      "stateMutability": "view",
      "type": "function"
    },
    {
      "constant": true,
      "inputs": [
        {
          "internalType": "address",
          "name": "candidate",
          "type": "address"
        }
      ],
      "name": "getVotesOf",
      "outputs": [
        {
          "internalType": "address[]",
          "name": "",
          "type": "address[]"
        }
      ],
      "payable": false,
      "stateMutability": "view",
      "type": "function"
    },
    {
      "constant": true,
      "inputs": [],
      "name": "getCandidates",
      "outputs": [
        {
          "components": [
            {
              "internalType": "string",
              "name": "name",
              "type": "string"
            },
            {
              "internalType": "string",
              "name": "role",
              "type": "string"
            },
            {
              "internalType": "bool",
              "name": "voted",
              "type": "bool"
            },
            {
              "internalType": "address",
              "name": "id",
              "type": "address"
            }
          ],
          "internalType": "struct Voting.Voter[]",
          "name": "",
          "type": "tuple[]"
        }
      ],
      "payable": false,
      "stateMutability": "view",
      "type": "function"
    },
    {
      "constant": true,
      "inputs": [
        {
          "internalType": "address",
          "name": "candidate",
          "type": "address"
        }
      ],
      "name": "getCandidateVotesCount",
      "outputs": [
        {
          "internalType": "uint256",
          "name": "",
          "type": "uint256"
        }
      ],
      "payable": false,
      "stateMutability": "view",
      "type": "function"
    }
  ],
  "bytecode": "0x608060405234801561001057600080fd5b50612606806100206000396000f3fe608060405234801561001057600080fd5b506004361061009e5760003560e01c80639f2524ee116100665780639f2524ee1461015c578063a5ea56271461018c578063aae31f1514610196578063cdd72253146101c6578063da58c7d9146101e45761009e565b8063017def95146100a357806306a49fce146100d35780633477ee2e146100f15780634a1abf061461012457806353358fc414610140575b600080fd5b6100bd60048036036100b89190810190611bff565b610217565b6040516100ca9190612265565b60405180910390f35b6100db6102e3565b6040516100e89190612287565b60405180910390f35b61010b60048036036101069190810190611ca5565b6104f7565b60405161011b94939291906122a9565b60405180910390f35b61013e60048036036101399190810190611c64565b610691565b005b61015a60048036036101559190810190611bff565b6108e8565b005b61017660048036036101719190810190611c28565b6110c0565b604051610183919061224a565b60405180910390f35b61019461110b565b005b6101b060048036036101ab9190810190611bff565b6116a3565b6040516101bd91906123bc565b60405180910390f35b6101ce6116ee565b6040516101db9190612287565b60405180910390f35b6101fe60048036036101f99190810190611ca5565b611902565b60405161020e94939291906122a9565b60405180910390f35b60606000808373ffffffffffffffffffffffffffffffffffffffff1673ffffffffffffffffffffffffffffffffffffffff1681526020019081526020016000208054806020026020016040519081016040528092919081815260200182805480156102d757602002820191906000526020600020905b8160009054906101000a900473ffffffffffffffffffffffffffffffffffffffff1673ffffffffffffffffffffffffffffffffffffffff168152602001906001019080831161028d575b50505050509050919050565b60606002805480602002602001604051908101604052809291908181526020016000905b828210156104ee5783829060005260206000209060030201604051806080016040529081600082018054600181600116156101000203166002900480601f0160208091040260200160405190810160405280929190818152602001828054600181600116156101000203166002900480156103c35780601f10610398576101008083540402835291602001916103c3565b820191906000526020600020905b8154815290600101906020018083116103a657829003601f168201915b50505050508152602001600182018054600181600116156101000203166002900480601f0160208091040260200160405190810160405280929190818152602001828054600181600116156101000203166002900480156104655780601f1061043a57610100808354040283529160200191610465565b820191906000526020600020905b81548152906001019060200180831161044857829003601f168201915b505050505081526020016002820160009054906101000a900460ff161515151581526020016002820160019054906101000a900473ffffffffffffffffffffffffffffffffffffffff1673ffffffffffffffffffffffffffffffffffffffff1673ffffffffffffffffffffffffffffffffffffffff168152505081526020019060010190610307565b50505050905090565b6002818154811061050457fe5b9060005260206000209060030201600091509050806000018054600181600116156101000203166002900480601f0160208091040260200160405190810160405280929190818152602001828054600181600116156101000203166002900480156105b05780601f10610585576101008083540402835291602001916105b0565b820191906000526020600020905b81548152906001019060200180831161059357829003601f168201915b505050505090806001018054600181600116156101000203166002900480601f01602080910402602001604051908101604052809291908181526020018280546001816001161561010002031660029004801561064e5780601f106106235761010080835404028352916020019161064e565b820191906000526020600020905b81548152906001019060200180831161063157829003601f168201915b5050505050908060020160009054906101000a900460ff16908060020160019054906101000a900473ffffffffffffffffffffffffffffffffffffffff16905084565b600080905060008090505b60018054905081101561073057826040516020016106ba9190612207565b60405160208183030381529060405280519060200120600182815481106106dd57fe5b90600052602060002090600302016000016040516020016106fe919061221e565b6040516020818303038152906040528051906020012014156107235760019150610730565b808060010191505061069c565b50600115158115151415610779576040517f08c379a00000000000000000000000000000000000000000000000000000000081526004016107709061233c565b60405180910390fd5b610781611a9c565b8281600001819052506040518060400160405280600581526020017f766f7465720000000000000000000000000000000000000000000000000000008152508160200181905250600081604001901515908115158152505033816060019073ffffffffffffffffffffffffffffffffffffffff16908173ffffffffffffffffffffffffffffffffffffffff168152505060018190806001815401808255809150509060018203906000526020600020906003020160009091929091909150600082015181600001908051906020019061085b929190611adc565b506020820151816001019080519060200190610878929190611adc565b5060408201518160020160006101000a81548160ff02191690831515021790555060608201518160020160016101000a81548173ffffffffffffffffffffffffffffffffffffffff021916908373ffffffffffffffffffffffffffffffffffffffff160217905550505050505050565b6000339050600080905060008090506108ff611a9c565b610907611a9c565b600080905060008090505b600180549050811015610dd7578673ffffffffffffffffffffffffffffffffffffffff166001828154811061094357fe5b906000526020600020906003020160020160019054906101000a900473ffffffffffffffffffffffffffffffffffffffff1673ffffffffffffffffffffffffffffffffffffffff161415610b76576001818154811061099e57fe5b9060005260206000209060030201604051806080016040529081600082018054600181600116156101000203166002900480601f016020809104026020016040519081016040528092919081815260200182805460018160011615610100020316600290048015610a505780601f10610a2557610100808354040283529160200191610a50565b820191906000526020600020905b815481529060010190602001808311610a3357829003601f168201915b50505050508152602001600182018054600181600116156101000203166002900480601f016020809104026020016040519081016040528092919081815260200182805460018160011615610100020316600290048015610af25780601f10610ac757610100808354040283529160200191610af2565b820191906000526020600020905b815481529060010190602001808311610ad557829003601f168201915b505050505081526020016002820160009054906101000a900460ff161515151581526020016002820160019054906101000a900473ffffffffffffffffffffffffffffffffffffffff1673ffffffffffffffffffffffffffffffffffffffff1673ffffffffffffffffffffffffffffffffffffffff16815250509350809150600195505b8773ffffffffffffffffffffffffffffffffffffffff1660018281548110610b9a57fe5b906000526020600020906003020160020160019054906101000a900473ffffffffffffffffffffffffffffffffffffffff1673ffffffffffffffffffffffffffffffffffffffff161415610dca5760018181548110610bf557fe5b9060005260206000209060030201604051806080016040529081600082018054600181600116156101000203166002900480601f016020809104026020016040519081016040528092919081815260200182805460018160011615610100020316600290048015610ca75780601f10610c7c57610100808354040283529160200191610ca7565b820191906000526020600020905b815481529060010190602001808311610c8a57829003601f168201915b50505050508152602001600182018054600181600116156101000203166002900480601f016020809104026020016040519081016040528092919081815260200182805460018160011615610100020316600290048015610d495780601f10610d1e57610100808354040283529160200191610d49565b820191906000526020600020905b815481529060010190602001808311610d2c57829003601f168201915b505050505081526020016002820160009054906101000a900460ff161515151581526020016002820160019054906101000a900473ffffffffffffffffffffffffffffffffffffffff1673ffffffffffffffffffffffffffffffffffffffff1673ffffffffffffffffffffffffffffffffffffffff16815250509250600194505b8080600101915050610912565b50600015158515151514610e20576040517f08c379a0000000000000000000000000000000000000000000000000000000008152600401610e179061239c565b60405180910390fd5b60011515836040015115151514610e6c576040517f08c379a0000000000000000000000000000000000000000000000000000000008152600401610e639061237c565b60405180910390fd5b600015158415151514610eb4576040517f08c379a0000000000000000000000000000000000000000000000000000000008152600401610eab906122fc565b60405180910390fd5b604051602001610ec390612235565b604051602081830303815290604052805190602001208260200151604051602001610eee91906121f0565b6040516020818303038152906040528051906020012014610f44576040517f08c379a0000000000000000000000000000000000000000000000000000000008152600401610f3b9061231c565b60405180910390fd5b6000808873ffffffffffffffffffffffffffffffffffffffff1673ffffffffffffffffffffffffffffffffffffffff1681526020019081526020016000208690806001815401808255809150509060018203906000526020600020016000909192909190916101000a81548173ffffffffffffffffffffffffffffffffffffffff021916908373ffffffffffffffffffffffffffffffffffffffff160217905550506001836040019015159081151581525050826001828154811061100557fe5b9060005260206000209060030201600082015181600001908051906020019061102f929190611adc565b50602082015181600101908051906020019061104c929190611adc565b5060408201518160020160006101000a81548160ff02191690831515021790555060608201518160020160016101000a81548173ffffffffffffffffffffffffffffffffffffffff021916908373ffffffffffffffffffffffffffffffffffffffff16021790555090505050505050505050565b600060205281600052604060002081815481106110d957fe5b906000526020600020016000915091509054906101000a900473ffffffffffffffffffffffffffffffffffffffff1681565b6000339050600080905060008090506000809050611127611a9c565b600093505b60018054905084101561139e578473ffffffffffffffffffffffffffffffffffffffff166001858154811061115d57fe5b906000526020600020906003020160020160019054906101000a900473ffffffffffffffffffffffffffffffffffffffff1673ffffffffffffffffffffffffffffffffffffffff16141561139157600184815481106111b857fe5b9060005260206000209060030201604051806080016040529081600082018054600181600116156101000203166002900480601f01602080910402602001604051908101604052809291908181526020018280546001816001161561010002031660029004801561126a5780601f1061123f5761010080835404028352916020019161126a565b820191906000526020600020905b81548152906001019060200180831161124d57829003601f168201915b50505050508152602001600182018054600181600116156101000203166002900480601f01602080910402602001604051908101604052809291908181526020018280546001816001161561010002031660029004801561130c5780601f106112e15761010080835404028352916020019161130c565b820191906000526020600020905b8154815290600101906020018083116112ef57829003601f168201915b505050505081526020016002820160009054906101000a900460ff161515151581526020016002820160019054906101000a900473ffffffffffffffffffffffffffffffffffffffff1673ffffffffffffffffffffffffffffffffffffffff1673ffffffffffffffffffffffffffffffffffffffff168152505090506001925061139e565b838060010194505061112c565b6000151583151514156113e6576040517f08c379a00000000000000000000000000000000000000000000000000000000081526004016113dd9061239c565b60405180910390fd5b600093505b60028054905084101561148457806060015173ffffffffffffffffffffffffffffffffffffffff166002858154811061142057fe5b906000526020600020906003020160020160019054906101000a900473ffffffffffffffffffffffffffffffffffffffff1673ffffffffffffffffffffffffffffffffffffffff1614156114775760019150611484565b83806001019450506113eb565b6001151582151514156114cc576040517f08c379a00000000000000000000000000000000000000000000000000000000081526004016114c39061235c565b60405180910390fd5b6040518060400160405280600981526020017f63616e64696461746500000000000000000000000000000000000000000000008152508160200181905250806001858154811061151857fe5b90600052602060002090600302016000820151816000019080519060200190611542929190611adc565b50602082015181600101908051906020019061155f929190611adc565b5060408201518160020160006101000a81548160ff02191690831515021790555060608201518160020160016101000a81548173ffffffffffffffffffffffffffffffffffffffff021916908373ffffffffffffffffffffffffffffffffffffffff160217905550905050600281908060018154018082558091505090600182039060005260206000209060030201600090919290919091506000820151816000019080519060200190611614929190611adc565b506020820151816001019080519060200190611631929190611adc565b5060408201518160020160006101000a81548160ff02191690831515021790555060608201518160020160016101000a81548173ffffffffffffffffffffffffffffffffffffffff021916908373ffffffffffffffffffffffffffffffffffffffff1602179055505050505050505050565b60008060008373ffffffffffffffffffffffffffffffffffffffff1673ffffffffffffffffffffffffffffffffffffffff168152602001908152602001600020805490509050919050565b60606001805480602002602001604051908101604052809291908181526020016000905b828210156118f95783829060005260206000209060030201604051806080016040529081600082018054600181600116156101000203166002900480601f0160208091040260200160405190810160405280929190818152602001828054600181600116156101000203166002900480156117ce5780601f106117a3576101008083540402835291602001916117ce565b820191906000526020600020905b8154815290600101906020018083116117b157829003601f168201915b50505050508152602001600182018054600181600116156101000203166002900480601f0160208091040260200160405190810160405280929190818152602001828054600181600116156101000203166002900480156118705780601f1061184557610100808354040283529160200191611870565b820191906000526020600020905b81548152906001019060200180831161185357829003601f168201915b505050505081526020016002820160009054906101000a900460ff161515151581526020016002820160019054906101000a900473ffffffffffffffffffffffffffffffffffffffff1673ffffffffffffffffffffffffffffffffffffffff1673ffffffffffffffffffffffffffffffffffffffff168152505081526020019060010190611712565b50505050905090565b6001818154811061190f57fe5b9060005260206000209060030201600091509050806000018054600181600116156101000203166002900480601f0160208091040260200160405190810160405280929190818152602001828054600181600116156101000203166002900480156119bb5780601f10611990576101008083540402835291602001916119bb565b820191906000526020600020905b81548152906001019060200180831161199e57829003601f168201915b505050505090806001018054600181600116156101000203166002900480601f016020809104026020016040519081016040528092919081815260200182805460018160011615610100020316600290048015611a595780601f10611a2e57610100808354040283529160200191611a59565b820191906000526020600020905b815481529060010190602001808311611a3c57829003601f168201915b5050505050908060020160009054906101000a900460ff16908060020160019054906101000a900473ffffffffffffffffffffffffffffffffffffffff16905084565b60405180608001604052806060815260200160608152602001600015158152602001600073ffffffffffffffffffffffffffffffffffffffff1681525090565b828054600181600116156101000203166002900490600052602060002090601f016020900481019282601f10611b1d57805160ff1916838001178555611b4b565b82800160010185558215611b4b579182015b82811115611b4a578251825591602001919060010190611b2f565b5b509050611b589190611b5c565b5090565b611b7e91905b80821115611b7a576000816000905550600101611b62565b5090565b90565b600081359050611b9081612595565b92915050565b600082601f830112611ba757600080fd5b8135611bba611bb582612404565b6123d7565b91508082526020830160208301858383011115611bd657600080fd5b611be1838284612542565b50505092915050565b600081359050611bf9816125ac565b92915050565b600060208284031215611c1157600080fd5b6000611c1f84828501611b81565b91505092915050565b60008060408385031215611c3b57600080fd5b6000611c4985828601611b81565b9250506020611c5a85828601611bea565b9150509250929050565b600060208284031215611c7657600080fd5b600082013567ffffffffffffffff811115611c9057600080fd5b611c9c84828501611b96565b91505092915050565b600060208284031215611cb757600080fd5b6000611cc584828501611bea565b91505092915050565b6000611cda8383611cfa565b60208301905092915050565b6000611cf28383612177565b905092915050565b611d03816124fa565b82525050565b611d12816124fa565b82525050565b6000611d2382612465565b611d2d81856124ab565b9350611d3883612430565b8060005b83811015611d69578151611d508882611cce565b9750611d5b83612491565b925050600181019050611d3c565b5085935050505092915050565b6000611d8182612470565b611d8b81856124bc565b935083602082028501611d9d85612440565b8060005b85811015611dd95784840389528151611dba8582611ce6565b9450611dc58361249e565b925060208a01995050600181019050611da1565b50829750879550505050505092915050565b611df48161250c565b82525050565b611e038161250c565b82525050565b6000611e1482612486565b611e1e81856124ef565b9350611e2e818560208601612551565b80840191505092915050565b6000611e458261247b565b611e4f81856124cd565b9350611e5f818560208601612551565b611e6881612584565b840191505092915050565b6000611e7e8261247b565b611e8881856124de565b9350611e98818560208601612551565b611ea181612584565b840191505092915050565b6000611eb78261247b565b611ec181856124ef565b9350611ed1818560208601612551565b80840191505092915050565b600081546001811660008114611efa5760018114611f1f57611f63565b607f6002830416611f0b81876124ef565b955060ff1983168652808601935050611f63565b60028204611f2d81876124ef565b9550611f3885612450565b60005b82811015611f5a57815481890152600182019150602081019050611f3b565b82880195505050505b505092915050565b6000611f78602a836124de565b91507f43616e646964617465206973206e6f74207265676973746572656420696e207660008301527f6f74657273206c697374000000000000000000000000000000000000000000006020830152604082019050919050565b6000611fde601b836124de565b91507f43616e646964617465206973206e6f74207265676973746572656400000000006000830152602082019050919050565b600061201e601b836124de565b91507f566f74657220697320616c7265616479207265676973746572656400000000006000830152602082019050919050565b600061205e6021836124de565b91507f43616e6469646174652069732063616e6469646174652072656769737465726560008301527f64000000000000000000000000000000000000000000000000000000000000006020830152604082019050919050565b60006120c46017836124de565b91507f566f7465722068617320616c726561647920766f7465640000000000000000006000830152602082019050919050565b60006121046017836124de565b91507f566f746572206973206e6f7420726567697374657265640000000000000000006000830152602082019050919050565b60006121446009836124ef565b91507f63616e64696461746500000000000000000000000000000000000000000000006000830152600982019050919050565b600060808301600083015184820360008601526121948282611e3a565b915050602083015184820360208601526121ae8282611e3a565b91505060408301516121c36040860182611deb565b5060608301516121d66060860182611cfa565b508091505092915050565b6121ea81612538565b82525050565b60006121fc8284611eac565b915081905092915050565b60006122138284611e09565b915081905092915050565b600061222a8284611edd565b915081905092915050565b600061224082612137565b9150819050919050565b600060208201905061225f6000830184611d09565b92915050565b6000602082019050818103600083015261227f8184611d18565b905092915050565b600060208201905081810360008301526122a18184611d76565b905092915050565b600060808201905081810360008301526122c38187611e73565b905081810360208301526122d78186611e73565b90506122e66040830185611dfa565b6122f36060830184611d09565b95945050505050565b6000602082019050818103600083015261231581611f6b565b9050919050565b6000602082019050818103600083015261233581611fd1565b9050919050565b6000602082019050818103600083015261235581612011565b9050919050565b6000602082019050818103600083015261237581612051565b9050919050565b60006020820190508181036000830152612395816120b7565b9050919050565b600060208201905081810360008301526123b5816120f7565b9050919050565b60006020820190506123d160008301846121e1565b92915050565b6000604051905081810181811067ffffffffffffffff821117156123fa57600080fd5b8060405250919050565b600067ffffffffffffffff82111561241b57600080fd5b601f19601f8301169050602081019050919050565b6000819050602082019050919050565b6000819050602082019050919050565b60008190508160005260206000209050919050565b600081519050919050565b600081519050919050565b600081519050919050565b600081519050919050565b6000602082019050919050565b6000602082019050919050565b600082825260208201905092915050565b600082825260208201905092915050565b600082825260208201905092915050565b600082825260208201905092915050565b600081905092915050565b600061250582612518565b9050919050565b60008115159050919050565b600073ffffffffffffffffffffffffffffffffffffffff82169050919050565b6000819050919050565b82818337600083830152505050565b60005b8381101561256f578082015181840152602081019050612554565b8381111561257e576000848401525b50505050565b6000601f19601f8301169050919050565b61259e816124fa565b81146125a957600080fd5b50565b6125b581612538565b81146125c057600080fd5b5056fea365627a7a7231582005745315b88dd3d60ac5096f55b29ab66024f5d087fdaade41efe41fdc7685436c6578706572696d656e74616cf564736f6c63430005100040",
  "source": "// SPDX-License-Identifier: GPL-3.0-or-later\npragma solidity >=0.4.22 <0.9.0;\npragma experimental ABIEncoderV2;\n\ncontract Voting {\n  mapping (address => address[]) public votes;\n\n  struct Voter {\n    string name;\n    string role;\n    bool voted;\n    address id;\n  }\n\n  Voter[] public voters;\n  Voter[] public candidates;\n\n  function registerAsVoter(string memory inputName) public {\n    bool voterFlag = false;\n    for(uint index = 0; index < voters.length; index++) {\n      if(keccak256(abi.encodePacked(voters[index].name)) == keccak256(abi.encodePacked(inputName))) {\n        voterFlag = true;\n        break;\n      }\n    }\n    require(!(voterFlag == true), \"Voter is already registered\");\n    Voter memory voter;\n    voter.name = inputName;\n    voter.role = \"voter\";\n    voter.voted = false;\n    voter.id = msg.sender;\n    voters.push(voter);\n  }\n\n  function registerAsCandidate() public {\n    address inputVoterAddress = msg.sender;\n    uint index = 0;\n    bool voterFlag = false;\n    bool candidateFlag = false;\n    Voter memory voter;\n    for(index = 0; index < voters.length; index++) {\n      if(voters[index].id == inputVoterAddress) {\n        voter = voters[index];\n        voterFlag = true;\n        break;\n      }\n    }\n    require(!(voterFlag == false), \"Voter is not registered\");\n    for(index = 0; index < candidates.length; index++) {\n      if(candidates[index].id == voter.id) {\n        candidateFlag = true;\n        break;\n      }\n    }\n    require(!(candidateFlag == true), \"Candidate is candidate registered\");\n    voter.role = \"candidate\";\n    voters[index] = voter;\n    candidates.push(voter);\n  }\n\n  function castVote(address inputCandidate) public {\n    address inputVoterAddress = msg.sender;\n    bool voterFlag = false;\n    bool candidateFlag = false;\n    Voter memory voter;\n    Voter memory candidate;\n    uint voterIndex = 0;\n    for(uint index = 0; index < voters.length; index++) {\n      if(voters[index].id == inputVoterAddress) {\n        voter = voters[index];\n        voterIndex = index;\n        voterFlag = true;\n      }\n      if(voters[index].id == inputCandidate) {\n        candidate = voters[index];\n        candidateFlag = true;\n      }\n    }\n    require(!voterFlag == false, \"Voter is not registered\");\n    require(!voter.voted == true, \"Voter has already voted\");\n    require(!candidateFlag == false, \"Candidate is not registered in voters list\");\n    require(!!(keccak256(abi.encodePacked(candidate.role)) == keccak256(abi.encodePacked(\"candidate\"))), \"Candidate is not registered\");\n    votes[inputCandidate].push(inputVoterAddress);\n    voter.voted = true;\n    voters[voterIndex] = voter;\n  }\n\n  function getVoters() public view returns (Voter[] memory) {\n    return voters;\n  }\n\n  function getVotesOf(address candidate) public view returns (address[] memory) {\n    return votes[candidate];\n  }\n\n  function getCandidates() public view returns (Voter[] memory) {\n    return candidates;\n  }\n\n  function getCandidateVotesCount(address candidate) public view returns (uint) {\n    return votes[candidate].length;\n  }\n}",
  "sourcePath": "/home/rasheed/Downloads/rasheed/eth/contracts/Voting.sol",
  "compiler": {
    "name": "solc",
    "version": "0.5.16+commit.9c3226ce.Emscripten.clang"
  },
  "schemaVersion": "3.4.7",
  "updatedAt": "2022-05-30T12:29:14.866Z",
  "networkType": "ethereum",
  "devdoc": {
    "methods": {}
  },
  "userdoc": {
    "methods": {}
  }
}